:020000040800F2
:10000000600600205D020008650200086702000823
:10001000690200086B0200086D0200080000000081
:100020000000000000000000000000006F02000857
:100030007102000800000000730200087502000849
:1000400077020008770200087702000877020008AC
:10005000770200087702000877020008770200089C
:10006000770200087702000877020008770200088C
:10007000770200087702000877020008770200087C
:10008000770200087702000877020008770200086C
:10009000770200087702000877020008770200085C
:1000A000770200087702000877020008770200084C
:1000B000770200087702000877020008770200083C
:1000C000770200087702000877020008770200082C
:1000D000770200087702000877020008770200081C
:1000E000770200087702000877020008770200080C
:1000F00077020008770200087702000877020008FC
:1001000077020008770200087702000877020008EB
:1001100077020008770200087702000877020008DB
:1001200077020008770200087702000877020008CB
:1001300077020008770200087702000877020008BB
:1001400077020008770200087702000877020008AB
:10015000770200087702000877020008770200089B
:10016000770200087702000877020008770200088B
:10017000770200087702000877020008770200087B
:10018000770200087702000877020008770200086B
:1001900077020008000000007702000877020008DC
:1001A000770200087702000877020008770200084B
:1001B000770200087702000877020008770200083B
:1001C000770200087702000877020008770200082B
:1001D000770200087702000800F002F800F02EF81D
:1001E0000AA090E8000C82448344AAF10107DA4592
:1001F00001D100F023F8AFF2090EBAE80F0013F0B6
:10020000010F18BFFB1A43F001031847B80700009D
:10021000C80700000023002400250026103A28BF4C
:1002200078C1FBD8520728BF30C148BF0B60704768
:100230001FB500F0F8FA1FBD10B510BD00F031F881
:100240001146FFF7F5FF00F0D3FA00F04FF803B4C2
:10025000FFF7F2FF03BC00F057F8000009488047A1
:1002600009480047FEE7FEE7FEE7FEE7FEE7FEE798
:10027000FEE7FEE7FEE7FEE704480549054A064BB0
:100280007047000039070008D9010008600000200D
:100290006006002060020020600200207047704766
:1002A0007047754600F02CF8AE4605006946534687
:1002B00020F00700854618B020B5FFF7DDFFBDE848
:1002C00020404FF000064FF000074FF000084FF0BD
:1002D000000BAC46ACE8C009ACE8C009ACE8C0090A
:1002E000ACE8C00921F007018D46704710B50446FF
:1002F000AFF300802046BDE81040FFF7A8BF000024
:10030000004870470000002001491820ABBEFEE7FE
:10031000260002007047000082B000900098072875
:1003200003D8FFE70120019002E000200190FFE7E1
:10033000019802B07047000080B582B001900020A3
:100340000090FFE700980199884209D2FFE74FF437
:100350007A7000F007F8FFE7009801300090F1E7AD
:1003600002B080BD81B0009041F22401C4F20001CE
:1003700000200860FFE741F22400C4F2000000689A
:100380000099884201D2FFE7F5E701B0704700000D
:1003900082B001900198C0F3822000900099012062
:1003A00000FA01F241F24C01C4F202010868104364
:1003B000086002B07047000082B001900198C0F35D
:1003C000822000900099012000FA01F241F25801C8
:1003D000C4F2020108681043086002B070470000D0
:1003E00080B586B040F6400EC0F6000EDEF8000084
:1003F000DEF80410DEF80820DEF80C30DEF810C05D
:10040000DEF814E0CDF814E0CDF810C003930292AA
:1004100001910090684600F003F806B080BD00002E
:1004200080B584B003900398406840000290039820
:100430004068FFF771FF002818BF01208DF8070002
:1004400003980068FFF7A4FF03988068009040B10C
:10045000FFE7009801280FD0FFE70098022819D085
:1004600049E0039800680068029A0321914088439C
:100470000399096808603FE0039800680068029AE1
:100480000321914088430121914008430399096861
:10049000086031E0039800680068029A03219140E7
:1004A00088430221914008430399096808609DF838
:1004B0000700C00778B1FFE703980068006A20F0E2
:1004C0000F0003994969029A520091400843039929
:1004D000096808620EE003980068406A20F00F0087
:1004E00003994969029A52009140084303990968A7
:1004F0004862FFE700E0FFE703980068C068029ADF
:10050000032101FA02F29043039AD268029B9A40B7
:100510001043039A1268D060039800688068029ABA
:100520009140084303990968886004B080BD0000C9
:1005300082B0019000910099012000FA01F2019926
:1005400048695040486102B07047000080B581B0F2
:10055000009000980068B0F5803F14D1FFE741F2A9
:100560000001C4F20201086840F480300860FFE72F
:1005700041F20000C4F2020000688003002801D4A8
:10058000FFE7F5E708E041F20001C4F20201086864
:1005900020F480300860FFE741F25801C4F2020104
:1005A000086840F0805008600098806AB0F5007FCD
:1005B0000AD1FFE747F20001C4F2000108680122F6
:1005C00062F34A20086009E047F20001C4F200012A
:1005D0000868022262F34A200860FFE70098C06AB8
:1005E000012809D1FFE747F28001C4F20001086841
:1005F00020F48070086008E047F28001C4F2000136
:10060000086840F480700860FFE742F20001C4F21D
:100610000201086820F00F00009A526B1043086036
:100620000098026B08681043086041F20001C4F2B0
:100630000201086820F08070086041F20C02C4F2E8
:100640000202106848F20C03C0F29F131840009B8E
:100650005B68DDF800C0DCF808E06FF00F0C0CEB15
:100660000E1C43EA0C03DDF800C0DCF80CC043EAC2
:100670000C23DDF800C0DCF814E040F2000CCFF6EB
:10068000E07C0CEA0E5CACF5001C43EA0C03DDF8E0
:1006900000C0DCF818E04FF07E4C0CEA0E6C0CF158
:1006A0007E4C43EA0C03DDF800C0DCF810C043EADE
:1006B000CC6318431060106840F0807010600868C8
:1006C00040F080700860FFE741F20000C4F20200D1
:1006D00000688001002801D4FFE7F5E741F2080136
:1006E000C4F20201086840F003000860FFE741F22D
:1006F0000800C4F20200006810F00C0F01D1FFE7FF
:10070000F5E741F20801C4F20201086820F0F000A8
:10071000009AD26910430860086820F4E060009AEB
:10072000126A10430860086820F46050009A526A08
:100730001043086001B080BD4EF68851CEF2000132
:10074000086840F4700008607047000080B586B00B
:1007500040F6580EC0F6000EDEF80000DEF8041079
:10076000DEF80820DEF80C30DEF810C0DEF814E009
:10077000CDF814E0CDF810C00393029201910090DF
:10078000684600F003F806B080BD000080B582B076
:10079000019001980068FFF70FFE019842680198E8
:1007A0000168886A1043886201980068C06A0198ED
:1007B000C06801990968C86201980069019949698E
:1007C00008430199896840EA0102019801680868B4
:1007D0001043086001980168086840F00100086053
:1007E00001980168486940F00100486102B080BD8D
:1007F00080B582B00020019040F67000C0F6000085
:1008000000F58870FFF7A2FEFFF7EAFDFFF79EFFF5
:10081000FFE74FF090400521FFF78AFE4FF47A7012
:10082000FFF78AFDF5E7F1EE100A4FF6FF71C0F20F
:10083000C03120EA010040F04070E1EE100A70473C
:10084000000000480500000001000000000000005A
:10085000030000000000000000100040A90000009C
:1008600000000000FFFFFFFF00000000800000000C
:10087000000001000300000002000000080000006A
:1008800002000000020000000200000080000000E2
:100890000000000000000000000200000000000056
:1008A000000700000400000000000000000000003D
:1008B0000000000000000100030000000200000032
:1008C000080000000200000002000000020000001A
:1008D0000000000000000000000000000002000016
:1008E00000000000000700000400000000000000FD
:1008F00000000000000000000000010003000000F4
:1009000002000000100000000200000002000000D1
:1009100002000000000000000000000000000000D5
:1009200000020000000000000007000004000000BA
:1009300000000000000000000000000000000100B6
:100940000300000003000000190000000200000086
:100950000200000002000000000000000000000093
:10096000000000000002000000000000000700007E
:100970000300000000000000000000000000000074
:100980000000010003000000060000005500000008
:100990000200000002000000020000000000000051
:1009A0000000000000000000000200000100000044
:1009B000000700000400000000000000000000002C
:1009C00000000000D40900080000002060060000BC
:0409D0001402000805
:04000005080001D915
:00000001FF
